:0C0956000A080102040810204080AA5585
:10092800E4FDFCD3ED9FEC9E5015E4FAFB0BBB00F5
:0F093800010AEB64644A70F50DBD00010C80E408
:01094700228D
:0C096300D2B67F057E00120928C2B62221
:0E094800D2B77F017E00120928C2B70209282B
:10090000751900751A08E4F583F582D3E582951A06
:10091000E5196480F8E5836480985009E4F5801255
:080920000948A380E602096307
:06088C008B128A1389148F
:1008920075150075160AE4F517F518F517F518C35E
:1008A200E5189516E5156480F8E517648098501EE2
:1008B200120948AB12AA13A914851882851783124C
:1008C20008D3F5800518E51870D5051780D10209FF
:0108D20063C2
:0B096F007B007A00790812088C80F5EC
:03000000020800F3
:0C080000787FE4F6D8FD75811A020847E5
:1008D300BB010CE58229F582E5833AF583E02250DA
:1008E30006E92582F8E622BBFE06E92582F8E22224
:0D08F300E58229F582E5833AF583E493223E
:10080C0002096FE493A3F8E493A34003F68001F28A
:10081C0008DFF48029E493A3F85407240CC8C333ED
:10082C00C4540F4420C8834004F456800146F6DFBC
:10083C00E4800B0102040810204080900956E47EED
:10084C00019360BCA3FF543F30E509541FFEE493B1
:10085C00A360010ECF54C025E060A840B8E493A378
:10086C00FAE493A3F8E493A3C8C582C8CAC583CAA3
:10087C00F0A3C8C582C8CAC583CADFE9DEE780BE5B
:010962000094
:00000001FF
