:100B87000A2200000000000000000000C106C108A2
:100B9700C107C10002320003023600000234000020
:100BA70002380000C109C185012C05012E00012D65
:100BB70002013004012F05013108C101C102C1033F
:100BC700014402024700000A3A000000000000004A
:030BD7000000001B
:100E1E00E4FDFCD3ED9FEC9E5015E4FAFB0BBB00FA
:0F0E2E00010AEB64644A70F50DBD00010C80E40D
:010E3D002292
:0C0EBE00D2A67F057E00120E1EC2A622E6
:100E3E007F087E00E4FDFCD3ED9FEE6480F8EC6449
:0E0E4E008098500AE4F5800DBD00010C80E98B
:010E5C002273
:060DA8008B088A09890A8C
:100DAE00E4FFFEAB08AA09A90A8F828E83120BDB21
:100DBE00F4AB0BAA0CA90D8F828E83120C080FBFF9
:090DCE0000010EEF640A4E70DA18
:010DD70022F9
:0D0EB10074222FF8300D0376FF22E4F622A4
:04080000A20F920CA5
:10080400300C70EFB4080040030208E3900817F8B6
:1008140028287302086E02086502085C0208530265
:10082400084A02084102083802082F74222DF8E60B
:100834004401F62274222DF8E64402F62274222D95
:10084400F8E64404F62274222DF8E64408F62274ED
:10085400222DF8E64410F62274222DF8E64420F600
:100864002274222DF8E64440F62274222DF8E64440
:1008740080F622EFB408005066900884F8282873A4
:100884000208DB0208D20208C90208C00208B70243
:1008940008AE0208A502089C74222DF8E654FEF660
:1008A4002274222DF8E654FDF62274222DF8E65423
:1008B400FBF62274222DF8E654F7F62274222DF862
:1008C400E654EFF62274222DF8E654DFF622742261
:1008D4002DF8E654BFF62274222DF8E6547FF62252
:020E5D00AE07DE
:100E5F00E4FBFAAF06AD03A20B920C1208040BBB16
:090E6F0000010AEB640A4A70EA72
:010E78002257
:0B0ECA00E4FF7E0A7822E4F608DEFC5C
:010ED50022FA
:100DD800A20E920DE4FF120EB1A20E920D7F09121F
:100DE8000EB1A20E920BE4FF120E5DA20E920B7FC3
:040DF80007020E5D83
:10099100EE6003020A1EEFB408004003020A1E9033
:1009A10009A7F82828730209BF0209CB0209D70257
:1009B10009E30209EF0209FB020A07020A13742282
:1009C1002DF8E630E702D322C32274222DF8E63057
:1009D100E602D322C32274222DF8E630E502D322A7
:1009E100C32274222DF8E630E402D322C3227422FA
:1009F1002DF8E630E302D322C32274222DF8E6302B
:100A0100E202D322C32274222DF8E630E102D3227E
:0E0A1100C32274222DF8E630E002D322C32265
:100DFC00AE05AC07120800EC04FF120800AF04EEBD
:100E0C0004FD120800EC04FFEE04FDA20F920C028C
:020E1C000804C8
:100CFD007FF47E01120E1E120ECAD20E120DD8D224
:100D0D000F7D047F03120DFCD20F7D027F05120DA6
:100D1D00FCD20F7D027F01120DFCD20F7D067F05E7
:0C0D2D00120DFCD20F7D067F01020DFCB0
:100E79007F647E00120E1EA2B79206A2B69208A245
:080E8900B59200A2B492072209
:100C2A00E52CB53314E4B53210E52EB5350BE4B531
:100C3A003407200104D201D322E52DB53314E4B5DB
:100C4A003210E530B5350BE4B53407200204D20280
:100C5A00D322E52FB53314E4B53210E531B5350B9F
:0D0C6A00E4B53407200304D203D322C322D3
:100D3900200106A205920C8002C20CAD2EAF2C1226
:100D49000804200206A205920C8002C20CAD30AF45
:100D59002D120804200306A205920C8002C20CADD4
:090D690031AF2F120804B205227B
:100AAB00AB37AA36E5372401FFE43536FEAD39AC5A
:100ABB0038120991500A0537E5377029053680251C
:100ACB00E53724FFFFE53634FFFEAD39AC381209AC
:100ADB00915012E5379400E53694004008E5371540
:100AEB003770021536AF03AE02E5392401FDE4354C
:100AFB0038FC12099150090539E53970280538225F
:100B0B00AF03AE02E53924FFFDE53834FFFC1209D3
:100B1B00915012E5399400E53894004008E53915F9
:050B2B003970021538CD
:010B300022A2
:100D7200E5336F7003E5326E600FEF2401FFE43E4E
:100D8200FEEFB5331FEEB5321BE5356D7003E5346A
:100D92006C600FED2401FFE43CFEEFB53506EEB5C5
:060DA2003402D322C3223B
:100E9100EFC394004006EFD394094002D322C3224A
:100EA100EFC394004006EFD394074002D322C3223C
:1008E400EF24FE60211460351460492403705AE536
:1008F4003514FF120E91400AE5351535704B153449
:100904008047D2098043E53304FF120EA1400A0553
:1009140033E533703405328030D209802CE5350458
:10092400FF120E91400A0535E535701D0534801916
:10093400D2098015E53314FF120EA1400AE53315E0
:1009440033700615328002D209AF33AD35D20C12A2
:100954000804AF37AD39C20C120804120C2A500334
:10096400A20922120AAB7D017C00E4FFFE120D7283
:1009740040167D047F037E00120D72400B7D077FBD
:0D098400067E00120D725002D209A2092257
:03000B00020B31B4
:100B3100C0E0C0D075D000C000C002C003C004C076
:100B410005C006C007C28D75A800743A2548F8E6AD
:100B5100F580B2A70548E54870020547640A454794
:100B6100700EF547F548D2A67F01FE120E1EC2A6F1
:100B710075A886D007D006D005D004D003D002D006
:060B810000D0D0D0E032EC
:03001300020C7765
:100C7700C0E0C0D075D000C002C003C004C005C02A
:100C870006C007120E79300605754401801630003C
:100C970005754402800E3008057544038006300749
:100CA70003754404D007D006D005D004D003D00282
:050CB700D0D0D0E032B6
:100CBC0075A886758902E4F58CF58AD28C75B00F0F
:100CCC00750B00750C00750D3A7B007A00792212B9
:100CDC000DA8E4F545F546AF46D20B120E5D054660
:100CEC00E54670020545C39408E545940040E8804C
:010CFC00CF28
:03000000020A1FD2
:0C0A1F00787FE4F6D8FD758148020A6675
:100BDB00BB010CE58229F582E5833AF583E02250CF
:100BEB0006E92582F8E622BBFE06E92582F8E22219
:0D0BFB00E58229F582E5833AF583E4932233
:100C0800F8BB010DE58229F582E5833AF583E8F022
:100C1800225006E92582C8F622BBFE05E92582C8CE
:020C2800F222B6
:100A2B00020CBCE493A3F8E493A34003F68001F219
:100A3B0008DFF48029E493A3F85407240CC8C333CC
:100A4B00C4540F4420C8834004F456800146F6DF9B
:100A5B00E4800B0102040810204080900B87E47E99
:100A6B00019360BCA3FF543F30E509541FFEE49390
:100A7B00A360010ECF54C025E060A840B8E493A357
:100A8B00FAE493A3F8E493A3C8C582C8CAC583CA82
:100A9B00F0A3C8C582C8CAC583CADFE9DEE780BE3A
:010BDA00001A
:00000001FF
