:100C2C000A2200000000000000000000C102C10404
:100C3C00C103C100022C000302300000022E000090
:100C4C0002320000C105013E02023F00000A3400DE
:090C5C000000000000000000008F
:100CB900E4FDFCD3ED9FEC9E5015E4FAFB0BBB0061
:0F0CC900010AEB64644A70F50DBD00010C80E474
:010CD80022F9
:0C0D5900D2A67F057E00120CB9C2A622B3
:100CD9007F087E00E4FDFCD3ED9FEE6480F8EC64B0
:0E0CE9008098500AE4F5800DBD00010C80E9F2
:010CF70022DA
:060C66008B088A09890ACF
:100C6C00E4FFFEAB08AA09A90A8F828E83120B043B
:100C7C00AB0BAA0CA90D8F828E83120B310FBF0008
:080C8C00010EEF640A4E70DB5B
:010C9400223D
:0D0D4C0074222FF830070376FF22E4F62210
:03080000D20A0F0A
:10080300300A70EFB4080040030208E2900816F8BB
:1008130028287302086D02086402085B020852026A
:10082300084902084002083702082E74222DF8E610
:100833004401F62274222DF8E64402F62274222D96
:10084300F8E64404F62274222DF8E64408F62274EE
:10085300222DF8E64410F62274222DF8E64420F601
:100863002274222DF8E64440F62274222DF8E64441
:1008730080F622EFB408005066900883F8282873A6
:100883000208DA0208D10208C80208BF0208B60249
:1008930008AD0208A402089B74222DF8E654FEF664
:1008A3002274222DF8E654FDF62274222DF8E65424
:1008B300FBF62274222DF8E654F7F62274222DF863
:1008C300E654EFF62274222DF8E654DFF622742262
:1008D3002DF8E654BFF62274222DF8E6547FF62253
:020CF800AE0745
:100CFA00E4FBFAAF06AD03A208920A1208030BBB83
:090D0A0000010AEB640A4A70EAD8
:010D130022BD
:0B0D6500E4FF7E0A7822E4F608DEFCC2
:010D70002260
:100C9500A2099207E4FF120D4CA20992077F0912DF
:100CA5000D4CA2099208E4FF120CF8A20992087FE4
:040CB50007020CF82E
:1008E300EE6003020970EFB4080040030209709040
:1008F30008F9F828287302091102091D02092902BF
:10090300093502094102094D020959020965742298
:100913002DF8E630E702D322C32274222DF8E63005
:10092300E602D322C32274222DF8E630E502D32255
:10093300C32274222DF8E630E402D322C3227422A8
:100943002DF8E630E302D322C32274222DF8E630D9
:10095300E202D322C32274222DF8E630E102D3222D
:0E096300C32274222DF8E630E002D322C32214
:100D14007F647E00120CB9A2B79202A2B69204A21A
:080D2400B59200A2B492032273
:1009FD00AB31AA30E5312401FFE43530FEAD33AC27
:100A0D00321208E3500A0531E53170290530802591
:100A1D00E53124FFFFE53034FFFEAD33AC32120873
:100A2D00E35012E5319400E53094004008E53115AE
:100A3D003170021530AF03AE02E5332401FDE4350C
:100A4D0032FC1208E350090533E5337028053222D4
:100A5D00AF03AE02E53324FFFDE53234FFFC12088F
:100A6D00E35012E5339400E53294004008E5331568
:050A7D00337002153288
:010A82002251
:100D2C00EFC394004006EFD394094002D322C322B0
:100D3C00EFC394004006EFD394074002D322C322A2
:100A8300EF24FE60211460351460492403705AE595
:100A93002F14FF120D2C400AE52F152F704B152E26
:100AA3008047D2058043E52D04FF120D3C400A0523
:100AB3002DE52D7034052C8030D205802CE52F04D4
:100AC300FF120D2C400A052FE52F701D052E8019EE
:100AD300D2058015E52D14FF120D3C400AE52D15B6
:100AE3002D7006152C8002D205AF2DAD2FD20A1220
:100AF3000803AF31AD33C20A1208031209FDA20580
:010B030022CF
:03000B00020B5392
:100B5300C0E0C0D075D000C000C002C003C004C054
:100B630005C006C00774342540F8E6F580B2A70532
:100B730040E5407002053F640A453F700EF53FF5BE
:100B830040D2A67F05FE120CB9C2A6D007D006D06C
:0E0B930005D004D003D002D000D0D0D0E03284
:03001300020BE7F6
:100BE700C0E0C0D075D000C002C003C004C005C0BB
:100BF70006C007120D14300205753E01801630003D
:100C070005753E02800E300405753E0380063003ED
:100C170003753E04D007D006D005D004D003D00218
:050C2700D0D0D0E03246
:100BA10075A886758902E4F58CD28C75B00FD20ACE
:100BB100FDFF120803120800120800D20A0F1208E2
:100BC10003750B00750C00750D347B007A007922DA
:100BD100120C662001EBAF3E120A8392017F887EE0
:060BE10013120CB980DBC9
:0300000002097181
:0C097100787FE4F6D8FD7581400209B8DB
:100B0400BB010CE58229F582E5833AF583E02250A6
:100B140006E92582F8E622BBFE06E92582F8E222F0
:0D0B2400E58229F582E5833AF583E493220A
:100B3100F8BB010DE58229F582E5833AF583E8F0FA
:100B4100225006E92582C8F622BBFE05E92582C8A6
:020B5100F2228E
:10097D00020BA1E493A3F8E493A34003F68001F2E4
:10098D0008DFF48029E493A3F85407240CC8C3337B
:10099D00C4540F4420C8834004F456800146F6DF4A
:1009AD00E4800B0102040810204080900C2CE47EA2
:1009BD00019360BCA3FF543F30E509541FFEE4933F
:1009CD00A360010ECF54C025E060A840B8E493A306
:1009DD00FAE493A3F8E493A3C8C582C8CAC583CA31
:1009ED00F0A3C8C582C8CAC583CADFE9DEE780BEE9
:010C6500008E
:00000001FF
