:1008F4002050210000000000000000000000000063
:1009040000000000000000000000000000000000E3
:1009140000000000000000000000000000000000D3
:1009240000000000000000000000000000000000C3
:1009340000000000000000000000000000000000B3
:0F0944000000000A710000000000000000000029
:100AAF00E4FDFCD3ED9FEC9E5015E4FAFB0BBB006D
:0F0ABF00010AEB64644A70F50DBD00010C80E480
:010ACE002205
:0C0B2C00D2B67F057E00120AAFC2B622CE
:0E0B1E00D2B77F647E00120AAFC2B7020AAFE0
:100A5F00750800750908E4F583F582D3E5829509D9
:100A6F00E5086480F8E5836480985009E4F5801206
:080A7F000B1EA380E6020B2C04
:060954008B088A09890AE4
:10095A00750B00750C0AE4F50DF50EF50DF50EC3D1
:10096A00E50E950CE50B6480F8E50D648098501E41
:10097A00120B1EAB08AA09A90A850E82850D8312DD
:10098A0008A5F580050EE50E70D5050D80D1020B80
:01099A002C30
:0A099B008B108A1189128C138D1441
:1009A500E4F515FDFCE51525E0F515E514AE137820
:1009B50003C333CE33CED8F9AB102512F9E5113E7A
:1009C500FAE92DF9EA3CFA12088C2515F5150DBD45
:0B09D50000010CED64084C70CCAF1565
:0109E00022F4
:0609E1008B088A09890A57
:1009E700E4F50EF50FF50EF50FAB08AA09A90AAD48
:1009F7000FAC0E12099BAB0BAA0CA90D850F8285B4
:100A07000E83EF1208D2050FE50F7002050EC3948F
:090A17000AE50E6480948040D0D1
:010A200022B3
:100B0D00A200E433FBED75F008A424212FF8A60311
:010B1D0022B5
:100ACF00E4FDFCA200E433FBEF75F008A424212D14
:0E0ADF00F8A6030DBD00010CED64084C70E597
:010AED0022E6
:100AEE00E4FDFCA200E433FBED75F008A424212FF5
:0E0AFE00F8A6030DBD00010CED640A4C70E576
:010B0C0022C6
:100A8700E4FFFEE4FDFCEF75F008A424212DF8E453
:100A9700F60DBD00010CED64084C70EA0FBF0001B4
:070AA7000EEF640A4E70DC43
:010AAE002225
:100A2100750B00750C00750D717B007A0079211230
:100A310009E1120A5F7B007A007971120954120AE6
:100A410087D2007D027C007F047E00120B0DD20054
:0E0A51007F01120AEED2007F03120ACF80C28C
:03000000020800F3
:0C080000787FE4F6D8FD75817A02084785
:10088C00BB010689828A83E0225002E722BBFE026A
:09089C00E32289828A83E493229D
:1008A500BB010CE58229F582E5833AF583E0225008
:1008B50006E92582F8E622BBFE06E92582F8E22252
:0D08C500E58229F582E5833AF583E493226C
:1008D200F8BB010DE58229F582E5833AF583E8F05C
:1008E200225006E92582C8F622BBFE05E92582C808
:0208F200F222F0
:10080C00020A21E493A3F8E493A34003F68001F2D7
:10081C0008DFF48029E493A3F85407240CC8C333ED
:10082C00C4540F4420C8834004F456800146F6DFBC
:10083C00E4800B01020408102040809008F4E47E50
:10084C00019360BCA3FF543F30E509541FFEE493B1
:10085C00A360010ECF54C025E060A840B8E493A378
:10086C00FAE493A3F8E493A3C8C582C8CAC583CAA3
:10087C00F0A3C8C582C8CAC583CADFE9DEE780BE5B
:0109530000A3
:00000001FF
