:100B48000A2200000000000000000000C102C104E9
:100B5800C103C100012C00012E00012D03012F004B
:100B6800C105023B0000C1010A300000000000007E
:040B78000000000079
:100BC600E4FDFCD3ED9FEC9E5015E4FAFB0BBB0055
:0F0BD600010AEB64644A70F50DBD00010C80E468
:010BE50022ED
:0C0C4A00D2A67F057E00120BC6C2A622B7
:100BE6007F087E00E4FDFCD3ED9FEE6480F8EC64A4
:0E0BF6008098500AE4F5800DBD00010C80E9E6
:010C040022CD
:0F0B0A00750B00750C00750D307B007A00792299
:060B19008B088A09890A1D
:100B1F00E4FFFEAB08AA09A90A8F828E831209E4AB
:100B2F00AB0BAA0CA90D8F828E83120A110FBF0077
:080B3F00010EEF640A4E70DBA9
:010B4700228B
:0D0C3D0074222FF830070376FF22E4F62220
:03080000D2080F0C
:100803008E0A8F0B300878E50A60030208F3E50BC4
:10081300B4080040030208F3900822F82828730262
:10082300087902087002086702085E020855020888
:100833004C02084302083A74222DF8E64401F622DA
:1008430074222DF8E64402F62274222DF8E64404BD
:10085300F62274222DF8E64408F62274222DF8E6D7
:100863004410F62274222DF8E64420F62274222D39
:10087300F8E64440F62274222DF8E64480F622E599
:100883000A706DE50BB408005066900894F82828A8
:10089300730208EB0208E20208D90208D00208C773
:1008A3000208BE0208B50208AC74222DF8E644FE25
:1008B300F62274222DF8E644FDF62274222DF8E682
:1008C30044FBF62274222DF8E644F7F62274222D17
:1008D300F8E644EFF62274222DF8E644DFF622749C
:1008E300222DF8E644BFF62274222DF8E6447FF663
:0108F30022E2
:040BA4008E088F091F
:100BA800E4FBFAAD03AC02A2079208AF09AE081243
:0D0BB80008030BBB00010AEB640A4A70E65B
:010BC500220D
:0B0C5600E4FF7E0A7822E4F608DEFCD2
:010C61002270
:100B7D00A2069207E4FFFE120C3DA20692077F0922
:100B8D00120C3DA2069207E4FF120BA4A2069207D7
:070B9D007F077E00020BA49C
:100C05007F647E00120BC6A2B79202A2B69204A21E
:080C1500B59200A2B492032283
:100C1D00EFC394004006EFD394074002D322C322C2
:100C2D00EFC394004006EFD394094002D322C322B0
:10098000EF24FE60191460251460312403703CE5E7
:100990002D14FF120C1D4004152D8002D205E52CEC
:1009A00004FF120C2D4004052C8002D205E52D0415
:1009B000FF120C1D4004052D8002D205E52C14FF0A
:1009C000120C2D4004152C8002D205AF2C7E00ADF8
:1009D0002D7C00D208120803AF2EAD2FC2081208DA
:0409E00003A2052247
:03000B00020A33B3
:100A3300C0E0C0D075D000C000C002C003C004C075
:100A430005C006C0077430253CF8E6F580B2A7055B
:100A53003CE53C7002053B640A453B700EF53BF5F3
:100A63003CD2A67F05FE120BC6C2A6D007D006D085
:0E0A730005D004D003D002D000D0D0D0E032A5
:03001300020A815D
:100A8100C0E0C0D075D000C002C003C004C005C022
:100A910006C007120C05300205753A0180163000B8
:100AA10005753A02800E300405753A03800630035D
:100AB10003753A04D007D006D005D004D003D00284
:050AC100D0D0D0E032AE
:100AC60075A886758902E4F58CD28C75B00FD208AC
:100AD600FDFCFFFE120803120800120800D2080FE0
:100AE600120803120B0A200107AF3A12098092017D
:100AF6007FE87E03120BC63001E9120C56120B7DFD
:040B0600120B0A22A2
:030000000208F4FF
:0C08F400787FE4F6D8FD75813C02093BDA
:1009E400BB010CE58229F582E5833AF583E02250C8
:1009F40006E92582F8E622BBFE06E92582F8E22212
:0D0A0400E58229F582E5833AF583E493222B
:100A1100F8BB010DE58229F582E5833AF583E8F01B
:100A2100225006E92582C8F622BBFE05E92582C8C7
:020A3100F222AF
:10090000020AC6E493A3F8E493A34003F68001F23D
:1009100008DFF48029E493A3F85407240CC8C333F8
:10092000C4540F4420C8834004F456800146F6DFC7
:10093000E4800B0102040810204080900B48E47E04
:10094000019360BCA3FF543F30E509541FFEE493BC
:10095000A360010ECF54C025E060A840B8E493A383
:10096000FAE493A3F8E493A3C8C582C8CAC583CAAE
:10097000F0A3C8C582C8CAC583CADFE9DEE780BE66
:010B7C000078
:00000001FF
