:100B0E000A2200000000000000000000C102C10423
:100B1E00C103C100012C00012E00012D03012F0085
:100B2E00C105023B0000C1010A30000000000000B8
:040B3E0000000000B3
:100BBB00E4FDFCD3ED9FEC9E5015E4FAFB0BBB0060
:0F0BCB00010AEB64644A70F50DBD00010C80E473
:010BDA0022F8
:0C0C3F00D2A67F057E00120BBBC2A622CD
:100BDB007F087E00E4FDFCD3ED9FEE6480F8EC64AF
:0E0BEB008098500AE4F5800DBD00010C80E9F1
:010BF90022D9
:060B43008B088A09890AF3
:100B4900E4FFFEAB08AA09A90A8F828E831209E481
:100B5900AB0BAA0CA90D8F828E83120A110FBF004D
:080B6900010EEF640A4E70DB7F
:010B71002261
:0D0C320074222FF830060376FF22E4F6222C
:03080000D2090F0B
:100803008E088F09300978E50860030208F3E509CB
:10081300B4080040030208F3900822F82828730262
:10082300087902087002086702085E020855020888
:100833004C02084302083A74222DF8E64401F622DA
:1008430074222DF8E64402F62274222DF8E64404BD
:10085300F62274222DF8E64408F62274222DF8E6D7
:100863004410F62274222DF8E64420F62274222D39
:10087300F8E64440F62274222DF8E64480F622E599
:1008830008706DE509B408005066900894F82828AC
:10089300730208EB0208E20208D90208D00208C773
:1008A3000208BE0208B50208AC74222DF8E644FE25
:1008B300F62274222DF8E644FDF62274222DF8E682
:1008C30044FBF62274222DF8E644F7F62274222D17
:1008D300F8E644EFF62274222DF8E644DFF622749C
:1008E300222DF8E644BFF62274222DF8E6447FF663
:0108F30022E2
:040B99008E0E8F0F1E
:100B9D00E4FBFAAD03AC02A2079209AF0FAE0E1241
:0D0BAD0008030BBB00010AEB640A4A70E666
:010BBA002218
:0B0C4B00E4FF7E0A7822E4F608DEFCDD
:010C5600227B
:100B7200A2089206E4FFFE120C32A20892067F0936
:100B8200120C32A2089207E4FF120B99A2089207F4
:070B92007F077E00020B99B2
:100BFA007F647E00120BBBA2B79202A2B69204A235
:080C0A00B59200A2B49203228E
:100C1200EFC394004006EFD394074002D322C322CD
:100C2200EFC394004006EFD394094002D322C322BB
:10098000EF24FE60191460251460312403703CE5E7
:100990002C14FF120C124004152C8002D205E52DF8
:1009A00004FF120C224004052D8002D205E52C0420
:1009B000FF120C124004052C8002D205E52D14FF15
:1009C000120C224004152D8002D205AF2C7E00AD02
:1009D0002D7C00D209120803AF2EAD2FC2091208D8
:0409E00003A2052247
:03000B00020A33B3
:100A3300C0E0C0D075D000C000C002C003C004C075
:100A430005C006C0077430253CF8E6F580B2A7055B
:100A53003CE53C7002053B640A453B700EF53BF5F3
:100A63003CD2A67F05FE120BBBC2A6D007D006D090
:0E0A730005D004D003D002D000D0D0D0E032A5
:03001300020AC915
:100AC900C0E0C0D075D000C002C003C004C005C0DA
:100AD90006C007120BFA300205753A01801630007C
:100AE90005753A02800E300405753A038006300315
:100AF90003753A04D007D006D005D004D003D0023C
:050B0900D0D0D0E03265
:100A810075A886758902E4F58CD28C75B00FD209F0
:100A9100FDFCFFFE120803120800120800D2090F24
:100AA100120803750B00750C00750D307B007A0080
:100AB1007922120B43200107AF3A12098092017F7C
:080AC100E87E03120BBB80DB91
:030000000208F4FF
:0C08F400787FE4F6D8FD75813C02093BDA
:1009E400BB010CE58229F582E5833AF583E02250C8
:1009F40006E92582F8E622BBFE06E92582F8E22212
:0D0A0400E58229F582E5833AF583E493222B
:100A1100F8BB010DE58229F582E5833AF583E8F01B
:100A2100225006E92582C8F622BBFE05E92582C8C7
:020A3100F222AF
:10090000020A81E493A3F8E493A34003F68001F282
:1009100008DFF48029E493A3F85407240CC8C333F8
:10092000C4540F4420C8834004F456800146F6DFC7
:10093000E4800B0102040810204080900B0EE47E3E
:10094000019360BCA3FF543F30E509541FFEE493BC
:10095000A360010ECF54C025E060A840B8E493A383
:10096000FAE493A3F8E493A3C8C582C8CAC583CAAE
:10097000F0A3C8C582C8CAC583CADFE9DEE780BE66
:010B420000B2
:00000001FF
