:100B9A000A2200000000000000000000C106C1088F
:100BAA00C107C1000232000302360000023400000D
:100BBA0002380000C109C185012C05012E00012D52
:100BCA0002013004012F05013108C101C102C1032C
:100BDA00014402024500000A3A0000000000000039
:030BEA0000000008
:100E3E00E4FDFCD3ED9FEC9E5015E4FAFB0BBB00DA
:0F0E4E00010AEB64644A70F50DBD00010C80E4ED
:010E5D002272
:0C0EDE00D2A67F057E00120E3EC2A622A6
:100E5E007F087E00E4FDFCD3ED9FEE6480F8EC6429
:0E0E6E008098500AE4F5800DBD00010C80E96B
:010E7C002253
:060DC2008B088A09890A72
:100DC800E4FFFEAB08AA09A90A8F828E83120BEEF4
:100DD800F4AB0BAA0CA90D8F828E83120C1B0FBFCC
:090DE80000010EEF640A4E70DAFE
:010DF10022DF
:0D0ED10074222FF8300C0376FF22E4F62285
:04080000A20B920DA8
:10080400300D70EFB4080040030208E3900817F8B5
:1008140028287302086E02086502085C0208530265
:10082400084A02084102083802082F74222DF8E60B
:100834004401F62274222DF8E64402F62274222D95
:10084400F8E64404F62274222DF8E64408F62274ED
:10085400222DF8E64410F62274222DF8E64420F600
:100864002274222DF8E64440F62274222DF8E64440
:1008740080F622EFB408005066900884F8282873A4
:100884000208DB0208D20208C90208C00208B70243
:1008940008AE0208A502089C74222DF8E654FEF660
:1008A4002274222DF8E654FDF62274222DF8E65423
:1008B400FBF62274222DF8E654F7F62274222DF862
:1008C400E654EFF62274222DF8E654DFF622742261
:1008D4002DF8E654BFF62274222DF8E6547FF62252
:020E7D00AE07BE
:100E7F00E4FBFAAF06AD03A20C920D1208040BBBF4
:090E8F0000010AEB640A4A70EA52
:010E98002237
:0B0EEA00E4FF7E0A7822E4F608DEFC3C
:010EF50022DA
:100E1A00A20B920CE4FF120ED1A20B920C7F0912C4
:100E2A000ED1A20B920CE4FF120E7DA20B920C7F44
:040E3A0007020E7D20
:10099100EE6003020A1EEFB408004003020A1E9033
:1009A10009A7F82828730209BF0209CB0209D70257
:1009B10009E30209EF0209FB020A07020A13742282
:1009C1002DF8E630E702D322C32274222DF8E63057
:1009D100E602D322C32274222DF8E630E502D322A7
:1009E100C32274222DF8E630E402D322C3227422FA
:1009F1002DF8E630E302D322C32274222DF8E6302B
:100A0100E202D322C32274222DF8E630E102D3227E
:0E0A1100C32274222DF8E630E002D322C32265
:060DF200D20B7D047F031B
:100DF800AE05AC07120800EC04FF120800AF04EEC1
:100E080004FD120800EC04FFEE04FDA20B920D0293
:020E18000804CC
:100D56007FF47E01120E3E120EEAD20B120E1A120A
:100D66000DF2D20B7D027F05120DF8D20B7D027FAC
:100D760001120DF8D20B7D067F05120DF8D20B7D00
:060D8600067F01020DF8DA
:100E99007F647E00120E3EA2B79206A2B69208A205
:080EA900B59200A2B4920722E9
:100C8B00E52CB53314E4B53210E52EB5350BE4B5D0
:100C9B003407200104D201D322E52DB53314E4B57A
:100CAB003210E530B5350BE4B53407200204D2021F
:100CBB00D322E52FB53314E4B53210E531B5350B3E
:0D0CCB00E4B53407200304D203D322C32272
:100D1D00200106A205920D8002C20DAD2EAF2C1240
:100D2D000804200206A205920D8002C20DAD30AF5F
:100D3D002D120804200306A205920D8002C20DADEE
:090D4D0031AF2F120804B2052297
:100AAB00AB37AA36E5372401FFE43536FEAD39AC5A
:100ABB0038120991500A0537E5377029053680251C
:100ACB00E53724FFFFE53634FFFEAD39AC381209AC
:100ADB00915012E5379400E53694004008E5371540
:100AEB003770021536AF03AE02E5392401FDE4354C
:100AFB0038FC12099150090539E53970280538225F
:100B0B00AF03AE02E53924FFFDE53834FFFC1209D3
:100B1B00915012E5399400E53894004008E53915F9
:050B2B003970021538CD
:010B300022A2
:100D8C00E5336F7003E5326E600FEF2401FFE43E34
:100D9C00FEEFB5331FEEB5321BE5356D7003E53450
:100DAC006C600FED2401FFE43CFEEFB53506EEB5AB
:060DBC003402D322C32221
:100EB100EFC394004006EFD394094002D322C3222A
:100EC100EFC394004006EFD394074002D322C3221C
:1008E400EF24FE60211460351460492403705AE536
:1008F4003514FF120EB1400AE5351535704B153429
:100904008047D2098043E53304FF120EC1400A0533
:1009140033E533703405328030D209802CE5350458
:10092400FF120EB1400A0535E535701D05348019F6
:10093400D2098015E53314FF120EC1400AE53315C0
:1009440033700615328002D209AF33AD35D20D12A1
:100954000804AF37AD39C20D120804120C8B5003D2
:10096400A20922120AAB7D017C00E4FFFE120D8C69
:1009740040167D047F037E00120D8C400B7D077FA3
:0D098400067E00120D8C5002D209A209223D
:03000B00020C3DA7
:100C3D00C0E0C0D075D000C000C002C003C004C069
:100C4D0005C006C007743A2546F8E6F580B2A7053B
:100C5D0046E54670020545640A4545700EF545F5B5
:100C6D0046D2A67F05FE120E3EC2A6D007D006D0F4
:0E0C7D0005D004D003D002D000D0D0D0E03299
:03001300020CD804
:100CD800C0E0C0D075D000C002C003C004C005C0C9
:100CE80006C007120E9930060575440180163000BB
:100CF80005754402800E30080575440380063007E8
:100D080003754404D007D006D005D004D003D00220
:050D1800D0D0D0E03254
:100B310075A886758902E4F58CD28C75B00FD20D3B
:100B4100FDFF120804D20D0F120804D20D0F120876
:100B510004D20D0F120804D20B0DE4FF120DF8128E
:100B61000DF2D20B7D077F06120DF8750B00750C87
:100B710000750D3A7B007A007922120DC220041112
:100B8100120D1DAF441208E492047FDC7E05120EA3
:090B91003E3004D7120D5680D24B
:03000000020A1FD2
:0C0A1F00787FE4F6D8FD758146020A6677
:100BEE00BB010CE58229F582E5833AF583E02250BC
:100BFE0006E92582F8E622BBFE06E92582F8E22206
:0D0C0E00E58229F582E5833AF583E493221F
:100C1B00F8BB010DE58229F582E5833AF583E8F00F
:100C2B00225006E92582C8F622BBFE05E92582C8BB
:020C3B00F222A3
:100A2B00020B31E493A3F8E493A34003F68001F2A5
:100A3B0008DFF48029E493A3F85407240CC8C333CC
:100A4B00C4540F4420C8834004F456800146F6DF9B
:100A5B00E4800B0102040810204080900B9AE47E86
:100A6B00019360BCA3FF543F30E509541FFEE49390
:100A7B00A360010ECF54C025E060A840B8E493A357
:100A8B00FAE493A3F8E493A3C8C582C8CAC583CA82
:100A9B00F0A3C8C582C8CAC583CADFE9DEE780BE3A
:010BED000007
:00000001FF
