:100B4B000A0800000000000000000000021C00006A
:0C0B5B000A120000000000000000000072
:100B0C00E4FDFCD3ED9FEC9E5015E4FAFB0BBB000F
:0F0B1C00010AEB64644A70F50DBD00010C80E422
:010B2B0022A7
:0C0B7500D2B67F057E00120B0CC2B62227
:100B2C007F087E00E4FDFCD3ED9FEE6480F8EC645E
:0E0B3C008098500AE4F5800DBD00010C80E9A0
:010B4A002288
:060A94008B218A22892358
:100A9A00E4FFFEAB21AA22A9238F828E8312097D4D
:100AAA00AB24AA25A9268F828E831209AA0FBF001A
:080ABA00010EEF640A4E70DB2F
:010AC2002211
:0D0B680074082FF830000376FF22E4F62217
:100800008E238F24300178E52360030208F0E5246D
:10081000B4080040030208F090081FF8282873026B
:10082000087602086D02086402085B02085202089A
:100830004902084002083774082DF8E64401F62200
:1008400074082DF8E64402F62274082DF8E64404F4
:10085000F62274082DF8E64408F62274082DF8E60E
:100860004410F62274082DF8E64420F62274082D70
:10087000F8E64440F62274082DF8E64480F622E5B6
:1008800023706DE524B408005066900891F828287C
:10089000730208E80208DF0208D60208CD0208C485
:1008A0000208BB0208B20208A974082DF8E644FE4B
:1008B000F62274082DF8E644FDF62274082DF8E6B9
:1008C00044FBF62274082DF8E644F7F62274082D4E
:1008D000F8E644EFF62274082DF8E644DFF62274B9
:1008E000082DF8E644BFF62274082DF8E6447FF69A
:0108F00022E5
:040AEA008E218F22A8
:100AEE00E4FBFAAD03AC02A2009201AF22AE2112DA
:0D0AFE0008000BBB00010AEB640A4A70E619
:010B0B0022C7
:0B0B8100E4FF7E0A7808E4F608DEFCC2
:010B8C002246
:100AC300A2029200E4FFFE120B68A20292007F09C9
:100AD300120B68A2029200E4FF120AEAA202920039
:070AE3007F077E00020AEA12
:03000B000209CC1B
:1009CC00C0E0C0D075D000C000C002C003C004C0DD
:1009DC0005C006C0077412251DF8E6F580B2B705F0
:1009EC001DE51D7002051C640A451C700EF51CF5F6
:1009FC001DD2B67F05FE120B0CC2B6D007D006D0A6
:0E0A0C0005D004D003D002D000D0D0D0E0320C
:03000300020A5995
:100A5900C0E0C0F0C083C082C0D075D000C000C063
:100A690001C002C003C004C005C006C007120000CF
:100A7900D007D006D005D004D003D002D001D000D1
:0B0A8900D0D0D082D083D0F0D0E0327B
:100A1A0075A883758902E4F58CD28C752400752536
:100A2A00007526127B007A007908120A94120B814B
:100A3A00D2017D027C007F047E00120800D2007F72
:0F0A4A0001120AEAD2007F037E00120B6880CCF3
:030000000208F102
:0C08F100787FE4F6D8FD758126020938F6
:10097D00BB010CE58229F582E5833AF583E022502F
:10098D0006E92582F8E622BBFE06E92582F8E22279
:0D099D00E58229F582E5833AF583E4932293
:1009AA00F8BB010DE58229F582E5833AF583E8F083
:1009BA00225006E92582C8F622BBFE05E92582C82F
:0209CA00F22217
:1008FD00020A1AE493A3F8E493A34003F68001F2ED
:10090D0008DFF48029E493A3F85407240CC8C333FB
:10091D00C4540F4420C8834004F456800146F6DFCA
:10092D00E4800B0102040810204080900B4BE47E04
:10093D00019360BCA3FF543F30E509541FFEE493BF
:10094D00A360010ECF54C025E060A840B8E493A386
:10095D00FAE493A3F8E493A3C8C582C8CAC583CAB1
:10096D00F0A3C8C582C8CAC583CADFE9DEE780BE69
:010B6700008D
:00000001FF
