:100ADB000A08000000000000000000000A120000DD
:080AEB00000000000000000003
:100ABB00E4FDFCD3ED9FEC9E5015E4FAFB0BBB0061
:0F0ACB00010AEB64644A70F50DBD00010C80E474
:010ADA0022F9
:0C0B0F00D2B67F057E00120ABBC2B622DF
:0E0AF400D2B77F647E00120ABBC2B7020ABBF3
:100A7100751C00751D08E4F583F582D3E582951D8B
:100A8100E51C6480F8E5836480985009E4F58012E0
:080A91000AF4A380E6020B0F3A
:0609CC008B218A22892321
:1009D20075240075250AE4F526F527F526F527C3C3
:1009E200E5279525E5246480F8E526648098501E65
:1009F200120AF4AB21AA22A9238527828526831213
:100A0200097DF5800527E52770D5052680D1020BE3
:010A12000FD4
:060A13008B218A228923D9
:100A1900E4FFFEAB21AA22A9238F828E8312097DCE
:100A2900AB24AA25A9268F828E831209AA0FBF009B
:080A3900010EEF640A4E70DBB0
:010A41002292
:0D0B020074082FF830000376FF22E4F6227D
:100800008E238F24300178E52360030208F0E5246D
:10081000B4080040030208F090081FF8282873026B
:10082000087602086D02086402085B02085202089A
:100830004902084002083774082DF8E64401F62200
:1008400074082DF8E64402F62274082DF8E64404F4
:10085000F62274082DF8E64408F62274082DF8E60E
:100860004410F62274082DF8E64420F62274082D70
:10087000F8E64440F62274082DF8E64480F622E5B6
:1008800023706DE524B408005066900891F828287C
:10089000730208E80208DF0208D60208CD0208C485
:1008A0000208BB0208B20208A974082DF8E644FE4B
:1008B000F62274082DF8E644FDF62274082DF8E6B9
:1008C00044FBF62274082DF8E644F7F62274082D4E
:1008D000F8E644EFF62274082DF8E644DFF62274B9
:1008E000082DF8E644BFF62274082DF8E6447FF69A
:0108F00022E5
:040A99008E218F22F9
:100A9D00E4FBFAAD03AC02A2009201AF22AE21122B
:0D0AAD0008000BBB00010AEB640A4A70E66A
:010ABA002219
:0B0B1B00E4FF7E0A7808E4F608DEFC28
:010B260022AC
:100A42007524007525007526127B007A007908123C
:100A52000A137B007A0079121209CCD2007F017E40
:0F0A620000120A99D2007F037E00120B0280D18E
:030000000208F102
:0C08F100787FE4F6D8FD758127020938F5
:10097D00BB010CE58229F582E5833AF583E022502F
:10098D0006E92582F8E622BBFE06E92582F8E22279
:0D099D00E58229F582E5833AF583E4932293
:1009AA00F8BB010DE58229F582E5833AF583E8F083
:1009BA00225006E92582C8F622BBFE05E92582C82F
:0209CA00F22217
:1008FD00020A42E493A3F8E493A34003F68001F2C5
:10090D0008DFF48029E493A3F85407240CC8C333FB
:10091D00C4540F4420C8834004F456800146F6DFCA
:10092D00E4800B0102040810204080900ADBE47E75
:10093D00019360BCA3FF543F30E509541FFEE493BF
:10094D00A360010ECF54C025E060A840B8E493A386
:10095D00FAE493A3F8E493A3C8C582C8CAC583CAB1
:10096D00F0A3C8C582C8CAC583CADFE9DEE780BE69
:010AF3000002
:00000001FF
