:100AE6000A08000000000000000000000A120000D2
:080AF6000000000000000000F8
:100AC600E4FDFCD3ED9FEC9E5015E4FAFB0BBB0056
:0F0AD600010AEB64644A70F50DBD00010C80E469
:010AE50022EE
:0C0B1A00D2B67F057E00120AC6C2B622C9
:0E0AFF00D2B77F647E00120AC6C2B7020AC6D2
:100A7C00751C00751D08E4F583F582D3E582951D80
:100A8C00E51C6480F8E5836480985009E4F58012D5
:080A9C000AFFA380E6020B1A19
:0609CC008B218A22892321
:1009D20075240075250AE4F526F527F526F527C3C3
:1009E200E5279525E5246480F8E526648098501E65
:1009F200120AFFAB21AA22A9238527828526831208
:100A0200097DF5800527E52770D5052680D1020BE3
:010A12001AC9
:060A4D008B218A2289239F
:100A5300E4FFFEAB21AA22A9238F828E8312097D94
:100A6300AB24AA25A9268F828E831209AA0FBF0061
:080A7300010EEF640A4E70DB76
:010A7B002258
:0D0B0D0074082FF830000376FF22E4F62272
:100800008E238F24300178E52360030208F0E5246D
:10081000B4080040030208F090081FF8282873026B
:10082000087602086D02086402085B02085202089A
:100830004902084002083774082DF8E64401F62200
:1008400074082DF8E64402F62274082DF8E64404F4
:10085000F62274082DF8E64408F62274082DF8E60E
:100860004410F62274082DF8E64420F62274082D70
:10087000F8E64440F62274082DF8E64480F622E5B6
:1008800023706DE524B408005066900891F828287C
:10089000730208E80208DF0208D60208CD0208C485
:1008A0000208BB0208B20208A974082DF8E644FE4B
:1008B000F62274082DF8E644FDF62274082DF8E6B9
:1008C00044FBF62274082DF8E644F7F62274082D4E
:1008D000F8E644EFF62274082DF8E644DFF62274B9
:1008E000082DF8E644BFF62274082DF8E6447FF69A
:0108F00022E5
:040AA4008E218F22EE
:100AA800E4FBFAAD03AC02A2009201AF22AE211220
:0D0AB80008000BBB00010AEB640A4A70E65F
:010AC500220E
:0B0B2600E4FF7E0A7808E4F608DEFC1D
:010B310022A1
:100A13007524007525007526127B007A007908126B
:100A23000A4D7B007A0079121209CCD2017D027C37
:100A3300007F047E00120800D2007F01120AA4D2B4
:0A0A4300007F037E00120B0D80C639
:030000000208F102
:0C08F100787FE4F6D8FD758127020938F5
:10097D00BB010CE58229F582E5833AF583E022502F
:10098D0006E92582F8E622BBFE06E92582F8E22279
:0D099D00E58229F582E5833AF583E4932293
:1009AA00F8BB010DE58229F582E5833AF583E8F083
:1009BA00225006E92582C8F622BBFE05E92582C82F
:0209CA00F22217
:1008FD00020A13E493A3F8E493A34003F68001F2F4
:10090D0008DFF48029E493A3F85407240CC8C333FB
:10091D00C4540F4420C8834004F456800146F6DFCA
:10092D00E4800B0102040810204080900AE6E47E6A
:10093D00019360BCA3FF543F30E509541FFEE493BF
:10094D00A360010ECF54C025E060A840B8E493A386
:10095D00FAE493A3F8E493A3C8C582C8CAC583CAB1
:10096D00F0A3C8C582C8CAC583CADFE9DEE780BE69
:010AFE0000F7
:00000001FF
