:100B9B000A2200000000000000000000C102C10496
:100BAB00C103C100012C03012E00012D00012F00F8
:100BBB00C105013A02023B00000A300000000000B0
:050BCB00000000000025
:100C2400E4FDFCD3ED9FEC9E5015E4FAFB0BBB00F6
:0F0C3400010AEB64644A70F50DBD00010C80E409
:010C4300228E
:0C0CC400D2A67F057E00120C24C2A622DE
:100C44007F087E00E4FDFCD3ED9FEE6480F8EC6445
:0E0C54008098500AE4F5800DBD00010C80E987
:010C6200226F
:060BD1008B088A09890A65
:100BD700E4FFFEAB08AA09A90A8F828E83120A3B9B
:100BE700AB0BAA0CA90D8F828E83120A680FBF0068
:080BF700010EEF640A4E70DBF1
:010BFF0022D3
:0D0CB70074222FF830070376FF22E4F622A6
:03080000D20A0F0A
:10080300300A70EFB4080040030208E2900816F8BB
:1008130028287302086D02086402085B020852026A
:10082300084902084002083702082E74222DF8E610
:100833004401F62274222DF8E64402F62274222D96
:10084300F8E64404F62274222DF8E64408F62274EE
:10085300222DF8E64410F62274222DF8E64420F601
:100863002274222DF8E64440F62274222DF8E64441
:1008730080F622EFB408005066900883F8282873A6
:100883000208DA0208D10208C80208BF0208B60249
:1008930008AD0208A402089B74222DF8E654FEF664
:1008A3002274222DF8E654FDF62274222DF8E65424
:1008B300FBF62274222DF8E654F7F62274222DF863
:1008C300E654EFF62274222DF8E654DFF622742262
:1008D3002DF8E654BFF62274222DF8E6547FF62253
:020C6300AE07DA
:100C6500E4FBFAAF06AD03A208920A1208030BBB18
:090C750000010AEB640A4A70EA6E
:010C7E002253
:0B0CD000E4FF7E0A7822E4F608DEFC58
:010CDB0022F6
:100C0000A2099207E4FF120CB7A20992077F09120A
:100C10000CB7A2099208E4FF120C63A20992087FA4
:040C200007020C6358
:1009D80074222DF8E6FEEFB4080050569009EBF8A3
:1009E800282873020A03020A0A020A11020A1802D4
:1009F8000A1F020A26020A2D020A34EE6002D322D6
:100A0800C322EE6002D322C322EE6002D322C322A5
:100A1800EE6002D322C322EE6002D322C322EE602C
:100A280002D322C322EE6002D322C322EE6002D395
:020A380022C3D7
:010A3A002299
:100C7F007F647E00120C24A2B79202A2B69204A245
:080C8F00B59200A2B492032209
:100B6300E52E04FFAD2F1209D85004052E800DE5A4
:100B73002E14FFAD2F1209D85002152EE52F04FDB8
:100B8300AF2E1209D85003052F22E52F14FDAF2EE7
:080B93001209D85002152F22AF
:100C9700EFC394004006EFD394094002D322C32246
:100CA700EFC394004006EFD394074002D322C32238
:10096F00EF24FE601B14602914603724037045E5E3
:10097F002D14FF120C974004152D8035D2058031B0
:10098F00E52C04FF120CA74004052C8002D2058031
:10099F0020E52D04FF120C974004052D8002D2058F
:1009AF00800FE52C14FF120CA74004152C8002D2E7
:1009BF0005120B63D20AAD2DAF2C120803C20AAD7C
:0909CF002FAF2E120803A205222D
:03000B00020A8A5C
:100A8A00C0E0C0D075D000C000C002C003C004C01E
:100A9A0005C006C0077430253CF8E6F580B2A70504
:100AAA003CE53C7002053B640A453B700EF53BF59C
:100ABA003CD2A67F05FE120C24C2A6D007D006D0CF
:0E0ACA0005D004D003D002D000D0D0D0E0324E
:03001300020B1EBF
:100B1E00C0E0C0D075D000C002C003C004C005C084
:100B2E0006C007120C7F300205753A0180163000A0
:100B3E0005753A02800E300405753A0380063003BF
:100B4E0003753A04D007D006D005D004D003D002E6
:050B5E00D0D0D0E03210
:100AD80075A886758902E4F58CD28C75B00FD20A98
:100AE800FDFF120803120800120800D20A0F1208AC
:100AF80003750B00750C00750D307B007A007922A8
:100B0800120BD12001EBAF3A12096F92017F107ED0
:060B180027120C2480DB13
:030000000208E310
:0C08E300787FE4F6D8FD75813C02092AFC
:100A3B00BB010CE58229F582E5833AF583E0225070
:100A4B0006E92582F8E622BBFE06E92582F8E222BA
:0D0A5B00E58229F582E5833AF583E49322D4
:100A6800F8BB010DE58229F582E5833AF583E8F0C4
:100A7800225006E92582C8F622BBFE05E92582C870
:020A8800F22258
:1008EF00020AD8E493A3F8E493A34003F68001F23D
:1008FF0008DFF48029E493A3F85407240CC8C3330A
:10090F00C4540F4420C8834004F456800146F6DFD8
:10091F00E4800B0102040810204080900B9BE47EC2
:10092F00019360BCA3FF543F30E509541FFEE493CD
:10093F00A360010ECF54C025E060A840B8E493A394
:10094F00FAE493A3F8E493A3C8C582C8CAC583CABF
:10095F00F0A3C8C582C8CAC583CADFE9DEE780BE77
:010BD0000024
:00000001FF
