:100BB0000A2200000000000000000000C102C10481
:100BC000C103C100012C03012E00012D00012F00E3
:100BD000C105013A02023B0000C1010A30000000D9
:070BE000000000000000000E
:100C3B00E4FDFCD3ED9FEC9E5015E4FAFB0BBB00DF
:0F0C4B00010AEB64644A70F50DBD00010C80E4F2
:010C5A002277
:0C0CDB00D2A67F057E00120C3BC2A622B0
:100C5B007F087E00E4FDFCD3ED9FEE6480F8EC642E
:0E0C6B008098500AE4F5800DBD00010C80E970
:010C79002258
:060BE8008B088A09890A4E
:100BEE00E4FFFEAB08AA09A90A8F828E83120A8837
:100BFE00AB0BAA0CA90D8F828E83120AB50FBF0004
:080C0E00010EEF640A4E70DBD9
:010C160022BB
:0D0CCE0074222FF830060376FF22E4F62290
:03080000D2090F0B
:10080300300970EFB4080040030208E2900816F8BC
:1008130028287302086D02086402085B020852026A
:10082300084902084002083702082E74222DF8E610
:100833004401F62274222DF8E64402F62274222D96
:10084300F8E64404F62274222DF8E64408F62274EE
:10085300222DF8E64410F62274222DF8E64420F601
:100863002274222DF8E64440F62274222DF8E64441
:1008730080F622EFB408005066900883F8282873A6
:100883000208DA0208D10208C80208BF0208B60249
:1008930008AD0208A402089B74222DF8E654FEF664
:1008A3002274222DF8E654FDF62274222DF8E65424
:1008B300FBF62274222DF8E654F7F62274222DF863
:1008C300E654EFF62274222DF8E654DFF622742262
:1008D3002DF8E654BFF62274222DF8E6547FF62253
:020C7A00AE07C3
:100C7C00E4FBFAAF06AD03A20792091208030BBB03
:090C8C0000010AEB640A4A70EA57
:010C9500223C
:0B0CE700E4FF7E0A7822E4F608DEFC41
:010CF20022DF
:100C1700A2089206E4FF120CCEA20892067F0912E0
:100C27000CCEA2089207E4FF120C7AA20892077F63
:040C370007020C7A2A
:100A0F00EFB40800506F900A1CF8282873020A34BC
:100A1F00020A3E020A48020A52020A5C020A6602EF
:100A2F000A70020A7A74222DF8E630E04AD3227453
:100A3F00222DF8E630E040D32274222DF8E630E084
:100A4F0036D32274222DF8E630E02CD32274222DD7
:100A5F00F8E630E022D32274222DF8E630E018D3E6
:100A6F002274222DF8E630E00ED32274222DF8E600
:090A7F0030E004D322C322C3229B
:100C96007F647E00120C3BA2B79202A2B69204A217
:080CA600B59200A2B4920322F2
:100CAE00EFC394004006EFD394094002D322C3222F
:100CBE00EFC394004006EFD394074002D322C32221
:1008E300EF24FE601B14602914603724037042E573
:1008F3002D14FF120CAE4004152D8035D205803126
:10090300E52C04FF120CBE4004052C8024D2058084
:1009130020E52D04FF120CAE4004052D8013D205F3
:10092300800FE52C14FF120CBE4004152C8002D25C
:1009330005D209AD2DAF2C120803C209AD2FAF2E7E
:10094300120803E52E04FFAD2F120A0F5004052EE3
:10095300802BE52E14FFAD2F120A0F5004152E80A5
:100963001CE52F04FDAF2E120A0F5004052F800D36
:10097300E52F14FDAF2E120A0F5002152FA20522E8
:03000B00020AD70F
:100AD700C0E0C0D075D000C000C002C003C004C0D1
:100AE70005C006C0077430253CF8E6F580B2A705B7
:100AF7003CE53C7002053B640A453B700EF53BF54F
:100B07003CD2A67F05FE120C3BC2A6D007D006D06A
:0E0B170005D004D003D002D000D0D0D0E03200
:03001300020B6B72
:100B6B00C0E0C0D075D000C002C003C004C005C037
:100B7B0006C007120C96300205753A01801630003C
:100B8B0005753A02800E300405753A038006300372
:100B9B0003753A04D007D006D005D004D003D00299
:050BAB00D0D0D0E032C3
:100B250075A886758902E4F58CD28C75B00FD2094B
:100B3500FDFF120803120800120800D2090F12085F
:100B450003750B00750C00750D307B007A0079225A
:100B5500120BE8200107AF3A1208E392017F887E65
:060B650013120C3B80DBC3
:030000000209836F
:0C098300787FE4F6D8FD75813C0209CABB
:100A8800BB010CE58229F582E5833AF583E0225023
:100A980006E92582F8E622BBFE06E92582F8E2226D
:0D0AA800E58229F582E5833AF583E4932287
:100AB500F8BB010DE58229F582E5833AF583E8F077
:100AC500225006E92582C8F622BBFE05E92582C823
:020AD500F2220B
:10098F00020B25E493A3F8E493A34003F68001F24E
:10099F0008DFF48029E493A3F85407240CC8C33369
:1009AF00C4540F4420C8834004F456800146F6DF38
:1009BF00E4800B0102040810204080900BB0E47E0D
:1009CF00019360BCA3FF543F30E509541FFEE4932D
:1009DF00A360010ECF54C025E060A840B8E493A3F4
:1009EF00FAE493A3F8E493A3C8C582C8CAC583CA1F
:1009FF00F0A3C8C582C8CAC583CADFE9DEE780BED7
:010BE700000D
:00000001FF
