:100B19000A2200000000000000000000C102C10418
:100B2900C103C100C101022C000002300000022EE5
:100B3900000302320000C105023F00000A34000030
:080B49000000000000000000A4
:100BF400E4FDFCD3ED9FEC9E5015E4FAFB0BBB0027
:0F0C0400010AEB64644A70F50DBD00010C80E439
:010C130022BE
:0C0C9200D2A67F057E00120BF4C2A62241
:100C14007F087E00E4FDFCD3ED9FEE6480F8EC6475
:0E0C24008098500AE4F5800DBD00010C80E9B7
:010C3200229F
:060B52007B007A0079220D
:060B58008B0C8A0D890ED2
:100B5E00E4FFFEAB0CAA0DA90E8F828E83120A370C
:100B6E00AB0FAA10A9118F828E83120A640FBF00D9
:080B7E00010EEF640A4E70DB6A
:010B8600224C
:0D0C850074222FF830060376FF22E4F622D9
:100800008E0C8F0D300978E50C60030208F0E50DC1
:10081000B4080040030208F090081FF8282873026B
:10082000087602086D02086402085B02085202089A
:100830004902084002083774222DF8E64401F622E6
:1008400074222DF8E64402F62274222DF8E64404C0
:10085000F62274222DF8E64408F62274222DF8E6DA
:100860004410F62274222DF8E64420F62274222D3C
:10087000F8E64440F62274222DF8E64480F622E59C
:100880000C706DE50DB408005066900891F82828AA
:10089000730208E80208DF0208D60208CD0208C485
:1008A0000208BB0208B20208A974222DF8E644FE31
:1008B000F62274222DF8E644FDF62274222DF8E685
:1008C00044FBF62274222DF8E644F7F62274222D1A
:1008D000F8E644EFF62274222DF8E644DFF622749F
:1008E000222DF8E644BFF62274222DF8E6447FF666
:0108F00022E5
:040BD2008E128F13DD
:100BD600E4FBFAAD03AC02A2079209AF13AE121200
:0D0BE60008000BBB00010AEB640A4A70E630
:010BF30022DF
:0B0C9E00E4FF7E0A7822E4F608DEFC8A
:010CA9002228
:100B8700A2089206E4FFFE120C85A20892067F09CE
:100B9700120C85A2089207E4FF120BD2A208920753
:070BA7007F077E00020BD264
:100C6B007F647E00120BF4A2B69202A2B59204A28C
:0A0C7B00B49200A2B29203D201224B
:0B0CAA00C201C203C200C204C2022249
:100C3300C3EE64809480400BD3EF9409EE648094F8
:0C0C4300804004E4FEFF227E007F0122BE
:100C4F00C3EE64809480400BD3EF9407EE648094DE
:0C0C5F00804004E4FEFF227E007F0122A2
:1008F1008F088B098A0A890B3005030209AAE508CA
:1009010024FE602714604014605924037072E52DA1
:1009110024FFFFE52C34FFFE120C33EF4E700AE585
:100921002D152D7006152C8002D205E52F2401FF0F
:10093100E4352EFE120C4FEF4E700A052FE52F7095
:1009410006052E8002D205E52D2401FFE4352CFE9B
:10095100120C33EF4E700A052DE52D7006052C8023
:1009610002D205E52F24FFFFE52E34FFFE120C4FC6
:10097100EF4E700AE52F152F7006152E8002D20555
:10098100D209AD2FAC2EAF2DAE2C120800C209AD8D
:1009910033AC32AF31AE3012080085090F850A1031
:0A09A100850B11120B520208F92217
:03000B00020A8660
:100A8600C0E0C0D075D000C000C002C003C004C022
:100A960005C006C00774342540F8E6F580B2A70500
:100AA60040E5407002053F640A453F700EF53FF58C
:100AB60040D2A67F05FE120BF4C2A6D007D006D000
:0E0AC60005D004D003D002D000D0D0D0E03252
:03001300020AD40A
:100AD400C0E0C0D075D000C002C003C004C005C0CF
:100AE40006C007120C6B300205753E0180163000FB
:100AF40005753E02800E300405753E038006300302
:100B040003753E04D007D006D005D004D003D0022C
:050B1400D0D0D0E0325A
:100BAE0075A886758902E4F58CD28C750F007510C8
:100BBE0000751134120B527B007A007934AF3E125D
:040BCE0008F180E7C3
:030000000209AB47
:0C09AB00787FE4F6D8FD7581400209F267
:100A3700BB010CE58229F582E5833AF583E0225074
:100A470006E92582F8E622BBFE06E92582F8E222BE
:0D0A5700E58229F582E5833AF583E49322D8
:100A6400F8BB010DE58229F582E5833AF583E8F0C8
:100A7400225006E92582C8F622BBFE05E92582C874
:020A8400F2225C
:1009B700020BAEE493A3F8E493A34003F68001F29D
:1009C70008DFF48029E493A3F85407240CC8C33341
:1009D700C4540F4420C8834004F456800146F6DF10
:1009E700E4800B0102040810204080900B19E47E7C
:1009F700019360BCA3FF543F30E509541FFEE49305
:100A0700A360010ECF54C025E060A840B8E493A3CB
:100A1700FAE493A3F8E493A3C8C582C8CAC583CAF6
:100A2700F0A3C8C582C8CAC583CADFE9DEE780BEAE
:010B510000A3
:00000001FF
