:100C71000A2200000000000000000000C102C104BF
:100C8100C103C100022C000302300000022E00004B
:100C910002320000C105013E02023F00000A340099
:090CA1000000000000000000004A
:100D9300E4FDFCD3ED9FEC9E5015E4FAFB0BBB0086
:0F0DA300010AEB64644A70F50DBD00010C80E499
:010DB200221E
:0C0E3300D2A67F057E00120D93C2A622FD
:100DB3007F087E00E4FDFCD3ED9FEE6480F8EC64D5
:0E0DC3008098500AE4F5800DBD00010C80E917
:010DD10022FF
:060D17008B088A09890A1D
:100D1D00E4FFFEAB08AA09A90A8F828E83120B8FFE
:100D2D00F4AB0BAA0CA90D8F828E83120BBC0FBFD7
:090D3D0000010EEF640A4E70DAA9
:010D4600228A
:0D0E260074222FF830080376FF22E4F62234
:04080000A2079209B0
:10080400300970EFB4080040030208E3900817F8B9
:1008140028287302086E02086502085C0208530265
:10082400084A02084102083802082F74222DF8E60B
:100834004401F62274222DF8E64402F62274222D95
:10084400F8E64404F62274222DF8E64408F62274ED
:10085400222DF8E64410F62274222DF8E64420F600
:100864002274222DF8E64440F62274222DF8E64440
:1008740080F622EFB408005066900884F8282873A4
:100884000208DB0208D20208C90208C00208B70243
:1008940008AE0208A502089C74222DF8E654FEF660
:1008A4002274222DF8E654FDF62274222DF8E65423
:1008B400FBF62274222DF8E654F7F62274222DF862
:1008C400E654EFF62274222DF8E654DFF622742261
:1008D4002DF8E654BFF62274222DF8E6547FF62252
:020DD200AE076A
:100DD400E4FBFAAF06AD03A20892091208040BBBA8
:090DE40000010AEB640A4A70EAFE
:010DED0022E3
:0B0E3F00E4FF7E0A7822E4F608DEFCE7
:010E4A002285
:100D6F00A2079208E4FF120E26A20792087F09122B
:100D7F000E26A2079208E4FF120DD2A20792087F57
:040D8F0007020DD278
:10098900EE6003020A16EFB408004003020A16904B
:10099900099FF82828730209B70209C30209CF027F
:1009A90009DB0209E70209F30209FF020A0B7422B3
:1009B9002DF8E630E702D322C32274222DF8E6305F
:1009C900E602D322C32274222DF8E630E502D322AF
:1009D900C32274222DF8E630E402D322C322742202
:1009E9002DF8E630E302D322C32274222DF8E63033
:1009F900E202D322C32274222DF8E630E102D32287
:0E0A0900C32274222DF8E630E002D322C3226D
:060D4700D2077D047F03CA
:100D4D00AE05AC07120800EC04FF120800AF04EE6C
:100D5D0004FD120800EC04FFEE04FDA20792090247
:020D6D00080478
:100CAB007FF47E01120D93120E3FD207120D6F12BD
:100CBB000D47D2077D027F05120D4DD2077D027FB6
:100CCB0001120D4DD2077D067F05120D4DD2077D0A
:060CDB00067F01020D4D31
:100DEE007F647E00120D93A2B79202A2B69204A265
:080DFE00B59200A2B492032299
:100AA300AB31AA30E5312401FFE43530FEAD33AC80
:100AB30032120989500A0531E53170290530802544
:100AC300E53124FFFFE53034FFFEAD33AC321209CC
:100AD300895012E5319400E53094004008E5311562
:100AE3003170021530AF03AE02E5332401FDE43566
:100AF30032FC12098950090533E533702805322287
:100B0300AF03AE02E53324FFFDE53234FFFC1209E7
:100B1300895012E5339400E53294004008E533151B
:050B23003370021532E1
:010B280022AA
:100CE100E52D6F7003E52C6E600FEF2401FFE43EEC
:100CF100FEEFB52D1FEEB52C1BE52F6D7003E52E14
:100D01006C600FED2401FFE43CFEEFB52F06EEB55C
:060D11002E02D322C322D2
:100E0600EFC394004006EFD394094002D322C322D5
:100E1600EFC394004006EFD394074002D322C322C7
:1008E400EF24FE60211460351460492403705AE536
:1008F4002F14FF120E06400AE52F152F704B152EEC
:100904008047D2058043E52D04FF120E16400A05E8
:100914002DE52D7034052C8030D205802CE52F0474
:10092400FF120E06400A052FE52F701D052E8019B3
:10093400D2058015E52D14FF120E16400AE52D157B
:100944002D7006152C8002D205AF2DAD2FD20912C1
:100954000804AF31AD33C209120804120AA37D01A1
:100964007C00E4FFFE120CE140167D047F037E0050
:10097400120CE1400B7D077F067E00120CE1500251
:05098400D205A20522CE
:03000B00020BDE07
:100BDE00C0E0C0D075D000C000C002C003C004C0C9
:100BEE0005C006C00774342540F8E6F580B2A705A7
:100BFE0040E5407002053F640A453F700EF53FF533
:100C0E0040D2A67F05FE120D93C2A6D007D006D005
:0E0C1E0005D004D003D002D000D0D0D0E032F8
:03001300020C2CB0
:100C2C00C0E0C0D075D000C002C003C004C005C075
:100C3C0006C007120DEE300205753E01801630001D
:100C4C0005753E02800E300405753E0380063003A8
:100C5C0003753E04D007D006D005D004D003D002D3
:050C6C00D0D0D0E03201
:100B290075A886758902E4F58CD28C75B00FD20947
:100B3900FDFF120804D2090F120804D2090F120886
:100B490004D2090F120804D2070DE4FF120D4D1249
:100B59000D47D2077D077F06120D4D750B00750CE9
:100B690000750D347B007A007922120D1720010ED1
:100B7900AF3E1208E492017FC47E09120D93300141
:060B8900DA120CAB80D56E
:03000000020A17DA
:0C0A1700787FE4F6D8FD758140020A5E8D
:100B8F00BB010CE58229F582E5833AF583E022501B
:100B9F0006E92582F8E622BBFE06E92582F8E22265
:0D0BAF00E58229F582E5833AF583E493227F
:100BBC00F8BB010DE58229F582E5833AF583E8F06F
:100BCC00225006E92582C8F622BBFE05E92582C81B
:020BDC00F22203
:100A2300020B29E493A3F8E493A34003F68001F2B5
:100A330008DFF48029E493A3F85407240CC8C333D4
:100A4300C4540F4420C8834004F456800146F6DFA3
:100A5300E4800B0102040810204080900C71E47EB6
:100A6300019360BCA3FF543F30E509541FFEE49398
:100A7300A360010ECF54C025E060A840B8E493A35F
:100A8300FAE493A3F8E493A3C8C582C8CAC583CA8A
:100A9300F0A3C8C582C8CAC583CADFE9DEE780BE42
:010CAA000049
:00000001FF
