:100BBF000A2200000000000000000000C102C10472
:100BCF00C103C100012C00012E00012D03012F00D4
:100BDF00C105023B0000C1010A3000000000000007
:040BEF000000000002
:100C6C00E4FDFCD3ED9FEC9E5015E4FAFB0BBB00AE
:0F0C7C00010AEB64644A70F50DBD00010C80E4C1
:010C8B002246
:0C0CF000D2A67F057E00120C6CC2A6226A
:100C8C007F087E00E4FDFCD3ED9FEE6480F8EC64FD
:0E0C9C008098500AE4F5800DBD00010C80E93F
:010CAA002227
:060BF4008B088A09890A42
:100BFA00E4FFFEAB08AA09A90A8F828E83120A951E
:100C0A00AB0BAA0CA90D8F828E83120AC20FBF00EA
:080C1A00010EEF640A4E70DBCD
:010C220022AF
:0D0CE30074222FF830060376FF22E4F6227B
:03080000D2090F0B
:100803008E088F09300978E50860030208F3E509CB
:10081300B4080040030208F3900822F82828730262
:10082300087902087002086702085E020855020888
:100833004C02084302083A74222DF8E64401F622DA
:1008430074222DF8E64402F62274222DF8E64404BD
:10085300F62274222DF8E64408F62274222DF8E6D7
:100863004410F62274222DF8E64420F62274222D39
:10087300F8E64440F62274222DF8E64480F622E599
:1008830008706DE509B408005066900894F82828AC
:10089300730208EB0208E20208D90208D00208C773
:1008A3000208BE0208B50208AC74222DF8E644FE25
:1008B300F62274222DF8E644FDF62274222DF8E682
:1008C30044FBF62274222DF8E644F7F62274222D17
:1008D300F8E644EFF62274222DF8E644DFF622749C
:1008E300222DF8E644BFF62274222DF8E6447FF663
:0108F30022E2
:040C4A008E0E8F0F6C
:100C4E00E4FBFAAD03AC02A2079209AF0FAE0E128F
:0D0C5E0008030BBB00010AEB640A4A70E6B4
:010C6B002266
:0B0CFC00E4FF7E0A7822E4F608DEFC2C
:010D070022C9
:100C2300A2089206E4FFFE120CE3A20892067F09D3
:100C3300120CE3A2089207E4FF120C4AA2089207DF
:070C43007F077E00020C4A4E
:100A1E00EFB40800506F900A2BF8282873020A438F
:100A2E00020A4D020A57020A61020A6B020A750295
:100A3E000A7F020A8974222DF8E630E049D3227427
:100A4E00222DF8E630E03FD32274222DF8E630E076
:100A5E0035D32274222DF8E630E02BD32274222DCA
:100A6E00F8E630E021D32274222DF8E630E017D3D9
:100A7E002274222DF8E630E00DD32274222DF8E6F2
:070A8E0030E003D322C32274
:100CAB007F647E00120C6CA2B79202A2B69204A2D1
:080CBB00B59200A2B4920322DD
:100CC300EFC394004006EFD394074002D322C3221C
:100CD300EFC394004006EFD394094002D322C3220A
:1008F400EF24FE60191460251460312403703CE574
:100904002D14FF120CC34004152D8002D205E52CD2
:1009140004FF120CD34004052C8002D205E52D04FB
:10092400FF120CC34004052D8002D205E52C14FFF0
:10093400120CD34004152C8002D205AF2C7E00ADDE
:100944002D7C00D209120803AF2EAD2FC209120864
:1009540003E52E04FFAD2F120A1E5004052E802B32
:10096400E52E14FFAD2F120A1E5004152E801CE52F
:100974002F04FDAF2E120A1E5004052F800DE52F03
:0E09840014FDAF2E120A1E5002152FA20522DE
:03000B00020AE402
:100AE400C0E0C0D075D000C000C002C003C004C0C4
:100AF40005C006C0077430253CF8E6F580B2A705AA
:100B04003CE53C7002053B640A453B700EF53BF541
:100B14003CD2A67F05FE120C6CC2A6D007D006D02C
:0E0B240005D004D003D002D000D0D0D0E032F3
:03001300020B7A63
:100B7A00C0E0C0D075D000C002C003C004C005C028
:100B8A0006C007120CAB300205753A018016300018
:100B9A0005753A02800E300405753A038006300363
:100BAA0003753A04D007D006D005D004D003D0028A
:050BBA00D0D0D0E032B4
:100B320075A886758902E4F58CD28C75B00FD2093E
:100B4200FDFCFFFE120803120800120800D2090F72
:100B5200120803750B00750C00750D307B007A00CE
:100B62007922120BF4200107AF3A1208F492017FA6
:080B7200E87E03120C6C80DB2D
:0300000002099260
:0C099200787FE4F6D8FD75813C0209D99D
:100A9500BB010CE58229F582E5833AF583E0225016
:100AA50006E92582F8E622BBFE06E92582F8E22260
:0D0AB500E58229F582E5833AF583E493227A
:100AC200F8BB010DE58229F582E5833AF583E8F06A
:100AD200225006E92582C8F622BBFE05E92582C816
:020AE200F222FE
:10099E00020B32E493A3F8E493A34003F68001F232
:1009AE0008DFF48029E493A3F85407240CC8C3335A
:1009BE00C4540F4420C8834004F456800146F6DF29
:1009CE00E4800B0102040810204080900BBFE47EEF
:1009DE00019360BCA3FF543F30E509541FFEE4931E
:1009EE00A360010ECF54C025E060A840B8E493A3E5
:1009FE00FAE493A3F8E493A3C8C582C8CAC583CA10
:100A0E00F0A3C8C582C8CAC583CADFE9DEE780BEC7
:010BF3000001
:00000001FF
