:100AD9000A0800000000000000000000C102C10473
:100AE900C103C100C101021C00000A12000000007C
:060AF900000000000000F7
:100B2200E4FDFCD3ED9FEC9E5015E4FAFB0BBB00F9
:0F0B3200010AEB64644A70F50DBD00010C80E40C
:010B41002291
:0C0B8B00D2B67F057E00120B22C2B622FB
:100B42007F087E00E4FDFCD3ED9FEE6480F8EC6448
:0E0B52008098500AE4F5800DBD00010C80E98A
:010B60002272
:060A5C008B218A22892390
:100A6200E4FFFEAB21AA22A9238F828E8312097D85
:100A7200AB24AA25A9268F828E831209AA0FBF0052
:080A8200010EEF640A4E70DB67
:010A8A002249
:0D0B7E0074082FF830050376FF22E4F622FC
:100800008E238F24300678E52360030208F0E52468
:10081000B4080040030208F090081FF8282873026B
:10082000087602086D02086402085B02085202089A
:100830004902084002083774082DF8E64401F62200
:1008400074082DF8E64402F62274082DF8E64404F4
:10085000F62274082DF8E64408F62274082DF8E60E
:100860004410F62274082DF8E64420F62274082D70
:10087000F8E64440F62274082DF8E64480F622E5B6
:1008800023706DE524B408005066900891F828287C
:10089000730208E80208DF0208D60208CD0208C485
:1008A0000208BB0208B20208A974082DF8E644FE4B
:1008B000F62274082DF8E644FDF62274082DF8E6B9
:1008C00044FBF62274082DF8E644F7F62274082D4E
:1008D000F8E644EFF62274082DF8E644DFF62274B9
:1008E000082DF8E644BFF62274082DF8E6447FF69A
:0108F00022E5
:040B00008E218F2291
:100B0400E4FBFAAD03AC02A2059206AF22AE2112B9
:0D0B140008000BBB00010AEB640A4A70E602
:010B210022B1
:0B0B9700E4FF7E0A7808E4F608DEFCAC
:010BA2002230
:100A8B00A2079205E4FFFE120B7EA20792057F09D7
:100A9B00120B7EA2079205E4FF120B00A207920530
:070AAB007F077E00020B0033
:100B61002001197F647E00120B22A2B79202A2B665
:0D0B71009204A2B59200A2B49203D2012218
:0B0BA300C201C203C200C204C2022251
:03000B000209CC1B
:1009CC00C0E0C0D075D000C000C002C003C004C0DD
:1009DC0005C006C0077412251DF8E6F580B2B705F0
:1009EC001DE51D7002051C640A451C700EF51CF5F6
:1009FC001DD2B67F05FE120B22C2B6D007D006D090
:0E0A0C0005D004D003D002D000D0D0D0E0320C
:03000300020AB23C
:100AB200C0E0C0D075D000C002C003C004C005C0F1
:100AC20006C007120B61D007D006D005D004D003B0
:070AD200D002D0D0D0E032C9
:100A1A0075A883758902E4F58CD28C752400752536
:100A2A00007526127B007A007908120A5C120B976D
:100A3A00D2067D027C007F047E00120800D2057F68
:100A4A0001120B00D2057F037E00120B7E120BA34C
:020A5A0080C951
:030000000208F102
:0C08F100787FE4F6D8FD758126020938F6
:10097D00BB010CE58229F582E5833AF583E022502F
:10098D0006E92582F8E622BBFE06E92582F8E22279
:0D099D00E58229F582E5833AF583E4932293
:1009AA00F8BB010DE58229F582E5833AF583E8F083
:1009BA00225006E92582C8F622BBFE05E92582C82F
:0209CA00F22217
:1008FD00020A1AE493A3F8E493A34003F68001F2ED
:10090D0008DFF48029E493A3F85407240CC8C333FB
:10091D00C4540F4420C8834004F456800146F6DFCA
:10092D00E4800B0102040810204080900AD9E47E77
:10093D00019360BCA3FF543F30E509541FFEE493BF
:10094D00A360010ECF54C025E060A840B8E493A386
:10095D00FAE493A3F8E493A3C8C582C8CAC583CAB1
:10096D00F0A3C8C582C8CAC583CADFE9DEE780BE69
:010AFF0000F6
:00000001FF
